{
  "_format": "hh-sol-artifact-1",
  "contractName": "TixoCollectionV1",
  "sourceName": "contracts/TixoCollectionV1.sol",
  "abi": [
    {
      "inputs": [],
      "stateMutability": "nonpayable",
      "type": "constructor"
    },
    {
      "anonymous": false,
      "inputs": [
        {
          "indexed": true,
          "internalType": "address",
          "name": "owner",
          "type": "address"
        },
        {
          "indexed": true,
          "internalType": "address",
          "name": "approved",
          "type": "address"
        },
        {
          "indexed": true,
          "internalType": "uint256",
          "name": "tokenId",
          "type": "uint256"
        }
      ],
      "name": "Approval",
      "type": "event"
    },
    {
      "anonymous": false,
      "inputs": [
        {
          "indexed": true,
          "internalType": "address",
          "name": "owner",
          "type": "address"
        },
        {
          "indexed": true,
          "internalType": "address",
          "name": "operator",
          "type": "address"
        },
        {
          "indexed": false,
          "internalType": "bool",
          "name": "approved",
          "type": "bool"
        }
      ],
      "name": "ApprovalForAll",
      "type": "event"
    },
    {
      "anonymous": false,
      "inputs": [
        {
          "indexed": false,
          "internalType": "string",
          "name": "newURI",
          "type": "string"
        }
      ],
      "name": "CollectionURIUpdated",
      "type": "event"
    },
    {
      "anonymous": false,
      "inputs": [
        {
          "indexed": true,
          "internalType": "uint256",
          "name": "eventId",
          "type": "uint256"
        },
        {
          "indexed": true,
          "internalType": "address",
          "name": "eventOwner",
          "type": "address"
        },
        {
          "indexed": false,
          "internalType": "uint256",
          "name": "ticketPrice",
          "type": "uint256"
        },
        {
          "indexed": false,
          "internalType": "uint256",
          "name": "maxTickets",
          "type": "uint256"
        }
      ],
      "name": "EventCreated",
      "type": "event"
    },
    {
      "anonymous": false,
      "inputs": [
        {
          "indexed": true,
          "internalType": "address",
          "name": "previousOwner",
          "type": "address"
        },
        {
          "indexed": true,
          "internalType": "address",
          "name": "newOwner",
          "type": "address"
        }
      ],
      "name": "OwnershipTransferred",
      "type": "event"
    },
    {
      "anonymous": false,
      "inputs": [
        {
          "indexed": false,
          "internalType": "uint256",
          "name": "ticketId",
          "type": "uint256"
        },
        {
          "indexed": true,
          "internalType": "address",
          "name": "recipient",
          "type": "address"
        },
        {
          "indexed": true,
          "internalType": "uint256",
          "name": "eventId",
          "type": "uint256"
        }
      ],
      "name": "TicketMinted",
      "type": "event"
    },
    {
      "anonymous": false,
      "inputs": [
        {
          "indexed": true,
          "internalType": "address",
          "name": "from",
          "type": "address"
        },
        {
          "indexed": true,
          "internalType": "address",
          "name": "to",
          "type": "address"
        },
        {
          "indexed": true,
          "internalType": "uint256",
          "name": "tokenId",
          "type": "uint256"
        }
      ],
      "name": "Transfer",
      "type": "event"
    },
    {
      "inputs": [
        {
          "internalType": "address",
          "name": "to",
          "type": "address"
        },
        {
          "internalType": "uint256",
          "name": "tokenId",
          "type": "uint256"
        }
      ],
      "name": "approve",
      "outputs": [],
      "stateMutability": "nonpayable",
      "type": "function"
    },
    {
      "inputs": [
        {
          "internalType": "address",
          "name": "owner",
          "type": "address"
        }
      ],
      "name": "balanceOf",
      "outputs": [
        {
          "internalType": "uint256",
          "name": "",
          "type": "uint256"
        }
      ],
      "stateMutability": "view",
      "type": "function"
    },
    {
      "inputs": [],
      "name": "collectionURI",
      "outputs": [
        {
          "internalType": "string",
          "name": "",
          "type": "string"
        }
      ],
      "stateMutability": "view",
      "type": "function"
    },
    {
      "inputs": [
        {
          "internalType": "uint256",
          "name": "ticketPrice",
          "type": "uint256"
        },
        {
          "internalType": "uint256",
          "name": "maxTickets",
          "type": "uint256"
        }
      ],
      "name": "createEvent",
      "outputs": [
        {
          "internalType": "uint256",
          "name": "",
          "type": "uint256"
        }
      ],
      "stateMutability": "nonpayable",
      "type": "function"
    },
    {
      "inputs": [
        {
          "internalType": "uint256",
          "name": "tokenId",
          "type": "uint256"
        }
      ],
      "name": "getApproved",
      "outputs": [
        {
          "internalType": "address",
          "name": "",
          "type": "address"
        }
      ],
      "stateMutability": "view",
      "type": "function"
    },
    {
      "inputs": [],
      "name": "getCollectionURI",
      "outputs": [
        {
          "internalType": "string",
          "name": "",
          "type": "string"
        }
      ],
      "stateMutability": "view",
      "type": "function"
    },
    {
      "inputs": [
        {
          "internalType": "uint256",
          "name": "eventId",
          "type": "uint256"
        }
      ],
      "name": "getEventOwner",
      "outputs": [
        {
          "internalType": "address",
          "name": "",
          "type": "address"
        }
      ],
      "stateMutability": "view",
      "type": "function"
    },
    {
      "inputs": [],
      "name": "getLastEventId",
      "outputs": [
        {
          "internalType": "uint256",
          "name": "",
          "type": "uint256"
        }
      ],
      "stateMutability": "view",
      "type": "function"
    },
    {
      "inputs": [
        {
          "internalType": "uint256",
          "name": "eventId",
          "type": "uint256"
        }
      ],
      "name": "getLastTicketId",
      "outputs": [
        {
          "internalType": "uint256",
          "name": "",
          "type": "uint256"
        }
      ],
      "stateMutability": "view",
      "type": "function"
    },
    {
      "inputs": [
        {
          "internalType": "uint256",
          "name": "eventId",
          "type": "uint256"
        }
      ],
      "name": "getTicketPrice",
      "outputs": [
        {
          "internalType": "uint256",
          "name": "",
          "type": "uint256"
        }
      ],
      "stateMutability": "view",
      "type": "function"
    },
    {
      "inputs": [
        {
          "internalType": "address",
          "name": "owner",
          "type": "address"
        },
        {
          "internalType": "address",
          "name": "operator",
          "type": "address"
        }
      ],
      "name": "isApprovedForAll",
      "outputs": [
        {
          "internalType": "bool",
          "name": "",
          "type": "bool"
        }
      ],
      "stateMutability": "view",
      "type": "function"
    },
    {
      "inputs": [
        {
          "internalType": "address",
          "name": "recipient",
          "type": "address"
        },
        {
          "internalType": "uint256",
          "name": "eventId",
          "type": "uint256"
        },
        {
          "internalType": "string",
          "name": "tokenURI",
          "type": "string"
        }
      ],
      "name": "mintWithTokenURI",
      "outputs": [
        {
          "internalType": "uint256",
          "name": "",
          "type": "uint256"
        }
      ],
      "stateMutability": "payable",
      "type": "function"
    },
    {
      "inputs": [],
      "name": "name",
      "outputs": [
        {
          "internalType": "string",
          "name": "",
          "type": "string"
        }
      ],
      "stateMutability": "view",
      "type": "function"
    },
    {
      "inputs": [],
      "name": "owner",
      "outputs": [
        {
          "internalType": "address",
          "name": "",
          "type": "address"
        }
      ],
      "stateMutability": "view",
      "type": "function"
    },
    {
      "inputs": [
        {
          "internalType": "uint256",
          "name": "tokenId",
          "type": "uint256"
        }
      ],
      "name": "ownerOf",
      "outputs": [
        {
          "internalType": "address",
          "name": "",
          "type": "address"
        }
      ],
      "stateMutability": "view",
      "type": "function"
    },
    {
      "inputs": [],
      "name": "renounceOwnership",
      "outputs": [],
      "stateMutability": "nonpayable",
      "type": "function"
    },
    {
      "inputs": [
        {
          "internalType": "address",
          "name": "from",
          "type": "address"
        },
        {
          "internalType": "address",
          "name": "to",
          "type": "address"
        },
        {
          "internalType": "uint256",
          "name": "tokenId",
          "type": "uint256"
        }
      ],
      "name": "safeTransferFrom",
      "outputs": [],
      "stateMutability": "nonpayable",
      "type": "function"
    },
    {
      "inputs": [
        {
          "internalType": "address",
          "name": "from",
          "type": "address"
        },
        {
          "internalType": "address",
          "name": "to",
          "type": "address"
        },
        {
          "internalType": "uint256",
          "name": "tokenId",
          "type": "uint256"
        },
        {
          "internalType": "bytes",
          "name": "data",
          "type": "bytes"
        }
      ],
      "name": "safeTransferFrom",
      "outputs": [],
      "stateMutability": "nonpayable",
      "type": "function"
    },
    {
      "inputs": [
        {
          "internalType": "address",
          "name": "operator",
          "type": "address"
        },
        {
          "internalType": "bool",
          "name": "approved",
          "type": "bool"
        }
      ],
      "name": "setApprovalForAll",
      "outputs": [],
      "stateMutability": "nonpayable",
      "type": "function"
    },
    {
      "inputs": [
        {
          "internalType": "string",
          "name": "_collectionURI",
          "type": "string"
        }
      ],
      "name": "setCollectionURI",
      "outputs": [],
      "stateMutability": "nonpayable",
      "type": "function"
    },
    {
      "inputs": [
        {
          "internalType": "bytes4",
          "name": "interfaceId",
          "type": "bytes4"
        }
      ],
      "name": "supportsInterface",
      "outputs": [
        {
          "internalType": "bool",
          "name": "",
          "type": "bool"
        }
      ],
      "stateMutability": "view",
      "type": "function"
    },
    {
      "inputs": [],
      "name": "symbol",
      "outputs": [
        {
          "internalType": "string",
          "name": "",
          "type": "string"
        }
      ],
      "stateMutability": "view",
      "type": "function"
    },
    {
      "inputs": [
        {
          "internalType": "uint256",
          "name": "tokenId",
          "type": "uint256"
        }
      ],
      "name": "tokenURI",
      "outputs": [
        {
          "internalType": "string",
          "name": "",
          "type": "string"
        }
      ],
      "stateMutability": "view",
      "type": "function"
    },
    {
      "inputs": [
        {
          "internalType": "address",
          "name": "from",
          "type": "address"
        },
        {
          "internalType": "address",
          "name": "to",
          "type": "address"
        },
        {
          "internalType": "uint256",
          "name": "tokenId",
          "type": "uint256"
        }
      ],
      "name": "transferFrom",
      "outputs": [],
      "stateMutability": "nonpayable",
      "type": "function"
    },
    {
      "inputs": [
        {
          "internalType": "address",
          "name": "newOwner",
          "type": "address"
        }
      ],
      "name": "transferOwnership",
      "outputs": [],
      "stateMutability": "nonpayable",
      "type": "function"
    }
  ],
  "bytecode": "0x60806040523480156200001157600080fd5b50604080518082018252600b81526a151a5e1bc8151a58dad95d60aa1b6020808301918252835180850190945260048452635449584f60e01b9084015281519192916200006191600091620000f0565b50805162000077906001906020840190620000f0565b505050620000946200008e6200009a60201b60201c565b6200009e565b620001d3565b3390565b600780546001600160a01b038381166001600160a01b0319831681179093556040519116919082907f8be0079c531659141344cd1fd0a4f28419497f9722a3daafe3b4186f6b6457e090600090a35050565b828054620000fe9062000196565b90600052602060002090601f0160209004810192826200012257600085556200016d565b82601f106200013d57805160ff19168380011785556200016d565b828001600101855582156200016d579182015b828111156200016d57825182559160200191906001019062000150565b506200017b9291506200017f565b5090565b5b808211156200017b576000815560010162000180565b600281046001821680620001ab57607f821691505b60208210811415620001cd57634e487b7160e01b600052602260045260246000fd5b50919050565b61207c80620001e36000396000f3fe6080604052600436106101965760003560e01c8063790c0125116100e1578063c7201b151161008a578063e985e9c511610064578063e985e9c514610420578063f06fc96114610440578063f2fde38b14610460578063fe210f691461048057610196565b8063c7201b15146103cb578063c87b56dd146103eb578063cfb5bb1f1461040b57610196565b8063a22cb465116100bb578063a22cb46514610376578063a5097ebf14610396578063b88d4fde146103ab57610196565b8063790c01251461032c5780638da5cb5b1461034c57806395d89b411461036157610196565b806342842e0e116101435780636352211e1161011d5780636352211e146102d757806370a08231146102f7578063715018a61461031757610196565b806342842e0e14610282578063478b9a1f146102a257806350bb4e7f146102c457610196565b8063095ea7b311610174578063095ea7b31461022057806323b872dd146102425780632639f4601461026257610196565b806301ffc9a71461019b57806306fdde03146101d1578063081812fc146101f3575b600080fd5b3480156101a757600080fd5b506101bb6101b636600461186b565b6104a0565b6040516101c891906119ba565b60405180910390f35b3480156101dd57600080fd5b506101e66104e8565b6040516101c891906119c5565b3480156101ff57600080fd5b5061021361020e3660046118d6565b61057a565b6040516101c8919061196a565b34801561022c57600080fd5b5061024061023b3660046117ed565b6105a1565b005b34801561024e57600080fd5b5061024061025d3660046116ff565b610642565b34801561026e57600080fd5b5061024061027d3660046118a3565b61067a565b34801561028e57600080fd5b5061024061029d3660046116ff565b6106d1565b3480156102ae57600080fd5b506102b76106ec565b6040516101c89190611f6c565b6102b76102d2366004611816565b6106fd565b3480156102e357600080fd5b506102136102f23660046118d6565b610886565b34801561030357600080fd5b506102b76103123660046116b3565b6108ba565b34801561032357600080fd5b506102406108fe565b34801561033857600080fd5b506102b76103473660046118ee565b610912565b34801561035857600080fd5b506102136109bd565b34801561036d57600080fd5b506101e66109cc565b34801561038257600080fd5b506102406103913660046117b3565b6109db565b3480156103a257600080fd5b506101e66109f1565b3480156103b757600080fd5b506102406103c636600461173a565b610a7f565b3480156103d757600080fd5b506102b76103e63660046118d6565b610abe565b3480156103f757600080fd5b506101e66104063660046118d6565b610b00565b34801561041757600080fd5b506101e6610c05565b34801561042c57600080fd5b506101bb61043b3660046116cd565b610c14565b34801561044c57600080fd5b506102b761045b3660046118d6565b610c42565b34801561046c57600080fd5b5061024061047b3660046116b3565b610c80565b34801561048c57600080fd5b5061021361049b3660046118d6565b610cba565b60006001600160e01b031982166380ac58cd60e01b14806104d157506001600160e01b03198216635b5e139f60e01b145b806104e057506104e082610d01565b90505b919050565b6060600080546104f790611ff2565b80601f016020809104026020016040519081016040528092919081815260200182805461052390611ff2565b80156105705780601f1061054557610100808354040283529160200191610570565b820191906000526020600020905b81548152906001019060200180831161055357829003601f168201915b5050505050905090565b600061058582610d1a565b506000908152600460205260409020546001600160a01b031690565b60006105ac82610886565b9050806001600160a01b0316836001600160a01b031614156105e95760405162461bcd60e51b81526004016105e090611e3a565b60405180910390fd5b806001600160a01b03166105fb610d3f565b6001600160a01b0316148061061757506106178161043b610d3f565b6106335760405162461bcd60e51b81526004016105e090611e7b565b61063d8383610d43565b505050565b61065361064d610d3f565b82610db1565b61066f5760405162461bcd60e51b81526004016105e090611a82565b61063d838383610e0f565b610682610f4c565b805161069590600d90602084019061156e565b507f88200832d1fe27eee076bea36a10a1eb73b9d27d9e6e5e2626a83d62ffc9ae5c600d6040516106c691906119d8565b60405180910390a150565b61063d83838360405180602001604052806000815250610a7f565b60006106f86008610f8b565b905090565b60006107096008610f8b565b8311156107285760405162461bcd60e51b81526004016105e090611ed8565b6000838152600a602052604090205434146107555760405162461bcd60e51b81526004016105e090611e03565b6000838152600b6020908152604080832054600990925290912061077890610f8b565b106107955760405162461bcd60e51b81526004016105e090611f0f565b60008381526009602052604090206107ac90610f8f565b60008381526009602052604081206107c390610f8b565b90506000816107d586620186a0611fa7565b6107df9190611f8f565b90506107eb8682610f98565b6107f5818561108d565b6000858152600c60205260408082205490516001600160a01b03909116913480156108fc02929091818181858888f1935050505015801561083a573d6000803e3d6000fd5b5084866001600160a01b03167f5c1c9352d51031acc9a558d7cdcca15b0ce5fe4f46d7315cca355248175b0a37836040516108759190611f6c565b60405180910390a395945050505050565b600080610892836110d1565b90506001600160a01b0381166104e05760405162461bcd60e51b81526004016105e090611dcc565b60006001600160a01b0382166108e25760405162461bcd60e51b81526004016105e090611ca8565b506001600160a01b031660009081526003602052604090205490565b610906610f4c565b61091060006110ec565b565b600061091e6008610f8f565b600061092a6008610f8b565b60408051602080820183526000808352848152600982528381209251909255600a8152828220889055600b8152828220879055600c905281902080546001600160a01b0319163390811790915590519192509082907f103cb41b8f71ac21b5792e993d472e727310a4470d9dde993d890f0634780cf1906109ae9088908890611f75565b60405180910390a39392505050565b6007546001600160a01b031690565b6060600180546104f790611ff2565b6109ed6109e6610d3f565b838361113e565b5050565b600d80546109fe90611ff2565b80601f0160208091040260200160405190810160405280929190818152602001828054610a2a90611ff2565b8015610a775780601f10610a4c57610100808354040283529160200191610a77565b820191906000526020600020905b815481529060010190602001808311610a5a57829003601f168201915b505050505081565b610a90610a8a610d3f565b83610db1565b610aac5760405162461bcd60e51b81526004016105e090611a82565b610ab8848484846111e1565b50505050565b6000610aca6008610f8b565b821115610ae95760405162461bcd60e51b81526004016105e090611ed8565b60008281526009602052604090206104e090610f8b565b6060610b0b82610d1a565b60008281526006602052604081208054610b2490611ff2565b80601f0160208091040260200160405190810160405280929190818152602001828054610b5090611ff2565b8015610b9d5780601f10610b7257610100808354040283529160200191610b9d565b820191906000526020600020905b815481529060010190602001808311610b8057829003601f168201915b505050505090506000610bae611214565b9050805160001415610bc2575090506104e3565b815115610bf4578082604051602001610bdc92919061193b565b604051602081830303815290604052925050506104e3565b610bfd84611226565b949350505050565b6060600d80546104f790611ff2565b6001600160a01b03918216600090815260056020908152604080832093909416825291909152205460ff1690565b6000610c4e6008610f8b565b821115610c6d5760405162461bcd60e51b81526004016105e090611ed8565b506000908152600a602052604090205490565b610c88610f4c565b6001600160a01b038116610cae5760405162461bcd60e51b81526004016105e090611b3c565b610cb7816110ec565b50565b6000610cc66008610f8b565b821115610ce55760405162461bcd60e51b81526004016105e090611ed8565b506000908152600c60205260409020546001600160a01b031690565b6001600160e01b031981166301ffc9a760e01b14919050565b610d238161128d565b610cb75760405162461bcd60e51b81526004016105e090611dcc565b3390565b600081815260046020526040902080546001600160a01b0319166001600160a01b0384169081179091558190610d7882610886565b6001600160a01b03167f8c5be1e5ebec7d5bd14f71427d1e84f3dd0314c0f7b2291e5b200ac8c7c3b92560405160405180910390a45050565b600080610dbd83610886565b9050806001600160a01b0316846001600160a01b03161480610de45750610de48185610c14565b80610bfd5750836001600160a01b0316610dfd8461057a565b6001600160a01b031614949350505050565b826001600160a01b0316610e2282610886565b6001600160a01b031614610e485760405162461bcd60e51b81526004016105e090611b99565b6001600160a01b038216610e6e5760405162461bcd60e51b81526004016105e090611c2d565b610e7b8383836001610ab8565b826001600160a01b0316610e8e82610886565b6001600160a01b031614610eb45760405162461bcd60e51b81526004016105e090611b99565b600081815260046020908152604080832080546001600160a01b03199081169091556001600160a01b0387811680865260038552838620805460001901905590871680865283862080546001019055868652600290945282852080549092168417909155905184937fddf252ad1be2c89b69c2b068fc378daa952ba7f163c4a11628f55a4df523b3ef91a461063d8383836001610ab8565b610f54610d3f565b6001600160a01b0316610f656109bd565b6001600160a01b0316146109105760405162461bcd60e51b81526004016105e090611d97565b5490565b80546001019055565b6001600160a01b038216610fbe5760405162461bcd60e51b81526004016105e090611d62565b610fc78161128d565b15610fe45760405162461bcd60e51b81526004016105e090611bf6565b610ff2600083836001610ab8565b610ffb8161128d565b156110185760405162461bcd60e51b81526004016105e090611bf6565b6001600160a01b038216600081815260036020908152604080832080546001019055848352600290915280822080546001600160a01b0319168417905551839291907fddf252ad1be2c89b69c2b068fc378daa952ba7f163c4a11628f55a4df523b3ef908290a46109ed600083836001610ab8565b6110968261128d565b6110b25760405162461bcd60e51b81526004016105e090611d05565b6000828152600660209081526040909120825161063d9284019061156e565b6000908152600260205260409020546001600160a01b031690565b600780546001600160a01b038381166001600160a01b0319831681179093556040519116919082907f8be0079c531659141344cd1fd0a4f28419497f9722a3daafe3b4186f6b6457e090600090a35050565b816001600160a01b0316836001600160a01b031614156111705760405162461bcd60e51b81526004016105e090611c71565b6001600160a01b0383811660008181526005602090815260408083209487168084529490915290819020805460ff1916851515179055517f17307eab39ab6107e8899845ad3d59bd9653f200f220920489ca2b5937696c31906111d49085906119ba565b60405180910390a3505050565b6111ec848484610e0f565b6111f8848484846112aa565b610ab85760405162461bcd60e51b81526004016105e090611adf565b60408051602081019091526000815290565b606061123182610d1a565b600061123b611214565b9050600081511161125b5760405180602001604052806000815250611286565b80611265846113c5565b60405160200161127692919061193b565b6040516020818303038152906040525b9392505050565b600080611299836110d1565b6001600160a01b0316141592915050565b60006112be846001600160a01b031661147d565b156113ba57836001600160a01b031663150b7a026112da610d3f565b8786866040518563ffffffff1660e01b81526004016112fc949392919061197e565b602060405180830381600087803b15801561131657600080fd5b505af1925050508015611346575060408051601f3d908101601f1916820190925261134391810190611887565b60015b6113a0573d808015611374576040519150601f19603f3d011682016040523d82523d6000602084013e611379565b606091505b5080516113985760405162461bcd60e51b81526004016105e090611adf565b805181602001fd5b6001600160e01b031916630a85bd0160e11b149050610bfd565b506001949350505050565b606060006113d28361148c565b600101905060008167ffffffffffffffff81111561140057634e487b7160e01b600052604160045260246000fd5b6040519080825280601f01601f19166020018201604052801561142a576020820181803683370190505b5090508181016020015b600019017f3031323334353637383961626364656600000000000000000000000000000000600a86061a8153600a850494508461147057611475565b611434565b509392505050565b6001600160a01b03163b151590565b6000807a184f03e93ff9f4daa797ed6e38ed64bf6a1f01000000000000000083106114d5577a184f03e93ff9f4daa797ed6e38ed64bf6a1f010000000000000000830492506040015b6d04ee2d6d415b85acef81000000008310611501576d04ee2d6d415b85acef8100000000830492506020015b662386f26fc10000831061151f57662386f26fc10000830492506010015b6305f5e1008310611537576305f5e100830492506008015b612710831061154b57612710830492506004015b6064831061155d576064830492506002015b600a83106104e05760010192915050565b82805461157a90611ff2565b90600052602060002090601f01602090048101928261159c57600085556115e2565b82601f106115b557805160ff19168380011785556115e2565b828001600101855582156115e2579182015b828111156115e25782518255916020019190600101906115c7565b506115ee9291506115f2565b5090565b5b808211156115ee57600081556001016115f3565b600067ffffffffffffffff8084111561162257611622612043565b604051601f8501601f19908116603f0116810190828211818310171561164a5761164a612043565b8160405280935085815286868601111561166357600080fd5b858560208301376000602087830101525050509392505050565b80356001600160a01b03811681146104e357600080fd5b600082601f8301126116a4578081fd5b61128683833560208501611607565b6000602082840312156116c4578081fd5b6112868261167d565b600080604083850312156116df578081fd5b6116e88361167d565b91506116f66020840161167d565b90509250929050565b600080600060608486031215611713578081fd5b61171c8461167d565b925061172a6020850161167d565b9150604084013590509250925092565b6000806000806080858703121561174f578081fd5b6117588561167d565b93506117666020860161167d565b925060408501359150606085013567ffffffffffffffff811115611788578182fd5b8501601f81018713611798578182fd5b6117a787823560208401611607565b91505092959194509250565b600080604083850312156117c5578182fd5b6117ce8361167d565b9150602083013580151581146117e2578182fd5b809150509250929050565b600080604083850312156117ff578182fd5b6118088361167d565b946020939093013593505050565b60008060006060848603121561182a578283fd5b6118338461167d565b925060208401359150604084013567ffffffffffffffff811115611855578182fd5b61186186828701611694565b9150509250925092565b60006020828403121561187c578081fd5b813561128681612059565b600060208284031215611898578081fd5b815161128681612059565b6000602082840312156118b4578081fd5b813567ffffffffffffffff8111156118ca578182fd5b610bfd84828501611694565b6000602082840312156118e7578081fd5b5035919050565b60008060408385031215611900578182fd5b50508035926020909101359150565b60008151808452611927816020860160208601611fc6565b601f01601f19169290920160200192915050565b6000835161194d818460208801611fc6565b835190830190611961818360208801611fc6565b01949350505050565b6001600160a01b0391909116815260200190565b60006001600160a01b038087168352808616602084015250836040830152608060608301526119b0608083018461190f565b9695505050505050565b901515815260200190565b600060208252611286602083018461190f565b60006020808352818454836002820490506001808316806119fa57607f831692505b858310811415611a1857634e487b7160e01b87526022600452602487fd5b611a2483878a01611f6c565b818015611a385760018114611a4957611a73565b60ff19861682528782019650611a73565b611a528b611f83565b895b86811015611a6d57815484820152908501908901611a54565b83019750505b50949998505050505050505050565b6020808252602d908201527f4552433732313a2063616c6c6572206973206e6f7420746f6b656e206f776e6560408201527f72206f7220617070726f76656400000000000000000000000000000000000000606082015260800190565b60208082526032908201527f4552433732313a207472616e7366657220746f206e6f6e20455243373231526560408201527f63656976657220696d706c656d656e7465720000000000000000000000000000606082015260800190565b60208082526026908201527f4f776e61626c653a206e6577206f776e657220697320746865207a65726f206160408201527f6464726573730000000000000000000000000000000000000000000000000000606082015260800190565b60208082526025908201527f4552433732313a207472616e736665722066726f6d20696e636f72726563742060408201527f6f776e6572000000000000000000000000000000000000000000000000000000606082015260800190565b6020808252601c908201527f4552433732313a20746f6b656e20616c7265616479206d696e74656400000000604082015260600190565b60208082526024908201527f4552433732313a207472616e7366657220746f20746865207a65726f206164646040820152637265737360e01b606082015260800190565b60208082526019908201527f4552433732313a20617070726f766520746f2063616c6c657200000000000000604082015260600190565b60208082526029908201527f4552433732313a2061646472657373207a65726f206973206e6f74206120766160408201527f6c6964206f776e65720000000000000000000000000000000000000000000000606082015260800190565b6020808252602e908201527f45524337323155524953746f726167653a2055524920736574206f66206e6f6e60408201527f6578697374656e7420746f6b656e000000000000000000000000000000000000606082015260800190565b6020808252818101527f4552433732313a206d696e7420746f20746865207a65726f2061646472657373604082015260600190565b6020808252818101527f4f776e61626c653a2063616c6c6572206973206e6f7420746865206f776e6572604082015260600190565b60208082526018908201527f4552433732313a20696e76616c696420746f6b656e2049440000000000000000604082015260600190565b60208082526016908201527f496e636f7272656374207469636b657420707269636500000000000000000000604082015260600190565b60208082526021908201527f4552433732313a20617070726f76616c20746f2063757272656e74206f776e656040820152603960f91b606082015260800190565b6020808252603d908201527f4552433732313a20617070726f76652063616c6c6572206973206e6f7420746f60408201527f6b656e206f776e6572206f7220617070726f76656420666f7220616c6c000000606082015260800190565b60208082526014908201527f4576656e7420646f6573206e6f74206578697374000000000000000000000000604082015260600190565b6020808252602b908201527f416c6c207469636b65747320666f722074686973206576656e7420686176652060408201527f6265656e206d696e746564000000000000000000000000000000000000000000606082015260800190565b90815260200190565b918252602082015260400190565b60009081526020902090565b60008219821115611fa257611fa261202d565b500190565b6000816000190483118215151615611fc157611fc161202d565b500290565b60005b83811015611fe1578181015183820152602001611fc9565b83811115610ab85750506000910152565b60028104600182168061200657607f821691505b6020821081141561202757634e487b7160e01b600052602260045260246000fd5b50919050565b634e487b7160e01b600052601160045260246000fd5b634e487b7160e01b600052604160045260246000fd5b6001600160e01b031981168114610cb757600080fdfea164736f6c6343000801000a",
  "linkReferences": {},
  "deployedLinkReferences": {}
}